{
  "contractName": "Voting",
  "abi": [
    {
      "constant": true,
      "inputs": [
        {
          "name": "",
          "type": "uint256"
        }
      ],
      "name": "proposals",
      "outputs": [
        {
          "name": "title",
          "type": "string"
        },
        {
          "name": "voteCountPos",
          "type": "uint256"
        },
        {
          "name": "voteCountNeg",
          "type": "uint256"
        },
        {
          "name": "voteCountAbs",
          "type": "uint256"
        }
      ],
      "payable": false,
      "stateMutability": "view",
      "type": "function"
    },
    {
      "anonymous": false,
      "inputs": [],
      "name": "CreatedProposalEvent",
      "type": "event"
    },
    {
      "anonymous": false,
      "inputs": [],
      "name": "CreatedVoteEvent",
      "type": "event"
    },
    {
      "constant": true,
      "inputs": [],
      "name": "getNumProposals",
      "outputs": [
        {
          "name": "",
          "type": "uint256"
        }
      ],
      "payable": false,
      "stateMutability": "view",
      "type": "function"
    },
    {
      "constant": true,
      "inputs": [
        {
          "name": "proposalInt",
          "type": "uint256"
        }
      ],
      "name": "getProposal",
      "outputs": [
        {
          "name": "",
          "type": "uint256"
        },
        {
          "name": "",
          "type": "string"
        },
        {
          "name": "",
          "type": "uint256"
        },
        {
          "name": "",
          "type": "uint256"
        },
        {
          "name": "",
          "type": "uint256"
        },
        {
          "name": "",
          "type": "address[]"
        }
      ],
      "payable": false,
      "stateMutability": "view",
      "type": "function"
    },
    {
      "constant": false,
      "inputs": [
        {
          "name": "title",
          "type": "string"
        }
      ],
      "name": "addProposal",
      "outputs": [
        {
          "name": "",
          "type": "bool"
        }
      ],
      "payable": false,
      "stateMutability": "nonpayable",
      "type": "function"
    },
    {
      "constant": false,
      "inputs": [
        {
          "name": "proposalInt",
          "type": "uint256"
        },
        {
          "name": "voteValue",
          "type": "uint256"
        }
      ],
      "name": "vote",
      "outputs": [
        {
          "name": "",
          "type": "bool"
        }
      ],
      "payable": false,
      "stateMutability": "nonpayable",
      "type": "function"
    }
  ],
  "bytecode": "0x6060604052341561000f57600080fd5b610b838061001e6000396000f30060606040526004361061006d576000357c0100000000000000000000000000000000000000000000000000000000900463ffffffff168063013cf08b146100725780632fdae3c514610140578063798974dd146101b5578063b384abef146101de578063c7f758a814610222575b600080fd5b341561007d57600080fd5b6100936004808035906020019091905050610322565b604051808060200185815260200184815260200183815260200182810382528681815460018160011615610100020316600290048152602001915080546001816001161561010002031660029004801561012e5780601f106101035761010080835404028352916020019161012e565b820191906000526020600020905b81548152906001019060200180831161011157829003601f168201915b50509550505050505060405180910390f35b341561014b57600080fd5b61019b600480803590602001908201803590602001908080601f01602080910402602001604051908101604052809392919081815260200183838082843782019150505050505091905050610360565b604051808215151515815260200191505060405180910390f35b34156101c057600080fd5b6101c861042e565b6040518082815260200191505060405180910390f35b34156101e957600080fd5b610208600480803590602001909190803590602001909190505061043a565b604051808215151515815260200191505060405180910390f35b341561022d57600080fd5b610243600480803590602001909190505061069e565b604051808781526020018060200186815260200185815260200184815260200180602001838103835288818151815260200191508051906020019080838360005b8381101561029f578082015181840152602081019050610284565b50505050905090810190601f1680156102cc5780820380516001836020036101000a031916815260200191505b50838103825284818151815260200191508051906020019060200280838360005b838110156103085780820151818401526020810190506102ed565b505050509050019850505050505050505060405180910390f35b60008181548110151561033157fe5b906000526020600020906006020160009150905080600001908060010154908060020154908060030154905084565b600061036a61083b565b7f0616bfbef63fbb3fb188ace13631901ead91828d4bc417e8d62b118462b60ff960405160405180910390a1828160000181905250600080548060010182816103b39190610877565b9160005260206000209060060201600083909190915060008201518160000190805190602001906103e59291906108a9565b506020820151816001015560408201518160020155606082015181600301556080820151816005019080519060200190610420929190610929565b505050506001915050919050565b60008080549050905090565b6000806000151560008581548110151561045057fe5b906000526020600020906006020160040160003373ffffffffffffffffffffffffffffffffffffffff1673ffffffffffffffffffffffffffffffffffffffff16815260200190815260200160002060010160009054906101000a900460ff16151514156106925760018314806104c65750600283145b806104d15750600383145b15156104dc57600080fd5b6000848154811015156104eb57fe5b90600052602060002090600602019050600183141561051c5760018160010160008282540192505081905550610552565b600283141561053d5760018160020160008282540192505081905550610551565b600181600301600082825401925050819055505b5b828160040160003373ffffffffffffffffffffffffffffffffffffffff1673ffffffffffffffffffffffffffffffffffffffff1681526020019081526020016000206000018190555060018160040160003373ffffffffffffffffffffffffffffffffffffffff1673ffffffffffffffffffffffffffffffffffffffff16815260200190815260200160002060010160006101000a81548160ff02191690831515021790555080600501805480600101828161060e91906109b3565b9160005260206000209001600033909190916101000a81548173ffffffffffffffffffffffffffffffffffffffff021916908373ffffffffffffffffffffffffffffffffffffffff160217905550507fc8d0f117c265f186f11ddd2b492c5183055634fe9b702704eb82c0fe0466364460405160405180910390a160019150610697565b600091505b5092915050565b60006106a86109df565b60008060006106b56109f3565b6000806000805490501115610830576000888154811015156106d357fe5b90600052602060002090600602019050878160000182600101548360020154846003015485600501848054600181600116156101000203166002900480601f0160208091040260200160405190810160405280929190818152602001828054600181600116156101000203166002900480156107905780601f1061076557610100808354040283529160200191610790565b820191906000526020600020905b81548152906001019060200180831161077357829003601f168201915b505050505094508080548060200260200160405190810160405280929190818152602001828054801561081857602002820191906000526020600020905b8160009054906101000a900473ffffffffffffffffffffffffffffffffffffffff1673ffffffffffffffffffffffffffffffffffffffff16815260200190600101908083116107ce575b50505050509050965096509650965096509650610831565b5b5091939550919395565b60a06040519081016040528061084f610a07565b8152602001600081526020016000815260200160008152602001610871610a1b565b81525090565b8154818355818115116108a4576006028160060283600052602060002091820191016108a39190610a2f565b5b505050565b828054600181600116156101000203166002900490600052602060002090601f016020900481019282601f106108ea57805160ff1916838001178555610918565b82800160010185558215610918579182015b828111156109175782518255916020019190600101906108fc565b5b5090506109259190610a86565b5090565b8280548282559060005260206000209081019282156109a2579160200282015b828111156109a15782518260006101000a81548173ffffffffffffffffffffffffffffffffffffffff021916908373ffffffffffffffffffffffffffffffffffffffff16021790555091602001919060010190610949565b5b5090506109af9190610aab565b5090565b8154818355818115116109da578183600052602060002091820191016109d99190610a86565b5b505050565b602060405190810160405280600081525090565b602060405190810160405280600081525090565b602060405190810160405280600081525090565b602060405190810160405280600081525090565b610a8391905b80821115610a7f5760008082016000610a4e9190610aee565b600182016000905560028201600090556003820160009055600582016000610a769190610b36565b50600601610a35565b5090565b90565b610aa891905b80821115610aa4576000816000905550600101610a8c565b5090565b90565b610aeb91905b80821115610ae757600081816101000a81549073ffffffffffffffffffffffffffffffffffffffff021916905550600101610ab1565b5090565b90565b50805460018160011615610100020316600290046000825580601f10610b145750610b33565b601f016020900490600052602060002090810190610b329190610a86565b5b50565b5080546000825590600052602060002090810190610b549190610a86565b505600a165627a7a72305820ee7dcffa4cdda9cb3980844ca3bc1b8c3a66b5647aa75bef143c4890f78b70290029",
  "source": "pragma solidity ^0.4.17;\n\n\ncontract Voting {\n\n    struct Proposal {\n        string title;\n        uint voteCountPos;\n        uint voteCountNeg;\n        uint voteCountAbs;\n        mapping (address => Voter) voters;\n        address[] votersAddress;\n    }\n\n    struct Voter {\n        uint value;\n        bool voted;\n    }\n\n    Proposal[] public proposals;\n\n    event CreatedProposalEvent();\n    event CreatedVoteEvent();\n\n    function getNumProposals() public view returns (uint) {\n        return proposals.length;\n    }\n\n    function getProposal(uint proposalInt) public view returns (uint, string, uint, uint, uint, address[]) {\n        if (proposals.length > 0) {\n            Proposal storage p = proposals[proposalInt]; // Get the proposal\n            return (proposalInt, p.title, p.voteCountPos, p.voteCountNeg, p.voteCountAbs, p.votersAddress);\n        }\n    }\n\n    function addProposal(string title) public returns (bool) {\n        Proposal memory proposal;\n        CreatedProposalEvent();\n        proposal.title = title;\n        proposals.push(proposal);\n        return true;\n    }\n\n    function vote(uint proposalInt, uint voteValue) public returns (bool) {\n        if (proposals[proposalInt].voters[msg.sender].voted == false) { // check duplicate key\n            require(voteValue == 1 || voteValue == 2 || voteValue == 3); // check voteValue\n            Proposal storage p = proposals[proposalInt]; // Get the proposal\n            if (voteValue == 1) {\n                p.voteCountPos += 1;\n            } else if (voteValue == 2) {\n                p.voteCountNeg += 1;\n            } else {\n                p.voteCountAbs += 1;\n            }\n            p.voters[msg.sender].value = voteValue;\n            p.voters[msg.sender].voted = true;\n            p.votersAddress.push(msg.sender);\n            CreatedVoteEvent();\n            return true;\n        } else {\n            return false;\n        }\n    }\n\n}\n",
  "sourcePath": "/Users/lecrintech/projects/ethereum/truffle-voting-dapp-ropsten/contracts/Voting.sol",
  "compiler": {
    "name": "solc",
    "version": "0.4.19+commit.c4cbbb05.Emscripten.clang"
  },
  "schemaVersion": "2.0.0",
  "updatedAt": "2018-03-19T13:20:48.553Z"
}